:100000000C942A000C9496000C9496000C94960084
:100010000C9496000C9496000C9496000C94960008
:100020000C9496000C9496000C9496000C949600F8
:100030000C9496000C9496000C9496000C949600E8
:100040000C9496000C9496000C9496000C949600D8
:100050000C94960011241FBECFE5D8E0DEBFCDBFC3
:0C0060000E9436000C948300F894FFCF3F
:10006C000E945F0086B306B3027010E0C6B3C47082
:10007C00D0E080FD04C080E00E94780003C080E0E6
:10008C000E946C00012B21F481E00E94780003C0D7
:10009C0081E00E946C00CD2B31F482E00E9478004C
:1000AC000E948E00DFCF82E00E946C000E949200C2
:0200BC00D9CF9A
:1000BE0087B3887F87BB88B3876088BB84B387602C
:0A00CE0084BB81B3816081BB0895FB
:1000D80095B321E030E002C0220F331F8A95E2F782
:0800E8002095292325BB089592
:1000F00095B321E030E002C0220F331F8A95E2F76A
:06010000292B25BB089528
:10010600EC010E949B000E949A00CE010E949C0076
:06011600CE010E949800DA
:08011C0082B3816082BB0895EB
:0801240082B38E7F82BB0895B7
:04012C000C9400002F
:040130000E943400F5
:0201340008952C
:0201360008952A
:02013800089528
:00000001FF
