:100000000C942A000C943F000C943F000C943F0089
:100010000C943F000C943F000C943F000C943F0064
:100020000C943F000C943F000C943F000C943F0054
:100030000C943F000C943F000C943F000C943F0044
:100040000C943F000C943F000C943F000C943F0034
:100050000C943F0011241FBECFE5D8E0DEBFCDBF1A
:1000600010E0A0E6B0E0ECE7F3E002C005900D92EE
:10007000A838B107D9F70E9453010C94BC010C9425
:10008000000082B3806482BB00C082B38F7B82BBDE
:100090000895CF93DF93D82F662321F082B3806138
:1000A00082BB03C082B38F7E82BB82B38F7D82BB53
:1000B00081B38F6081BBC2B3C07F8D2F82958F705B
:1000C0008C2B82BB0E944100DF70DC2BD2BB0E94D4
:1000D0004100CF60C2BBDF91CF910895882321F00A
:1000E00082B3806182BB03C082B38F7E82BB82B346
:1000F000806282BB81B3807F81BB82B3806482BB1C
:1001000000C090B39295907F82B38F7B82BB00C07A
:1001100082B3806482BB00C080B38F7022B32F7B18
:1001200022BB892B089580E00E946E008823DCF3B7
:1001300088E090E00197F1F780E00E946E0008955A
:10014000CF93C82F0E94930060E08C2F0E9449003B
:10015000CF91089581E00E94A000089582E00E945E
:10016000A0000895CF93C82F0E949300CA3049F48D
:10017000803410F480E401C080E080580E94A00028
:1001800004C061E08C2F0E944900CF910895CF9365
:10019000DF93FC0103C00E94B200FE01EF01219633
:1001A00080818111F8CFDF91CF9108951F93CF9374
:1001B000DF93182F81B38F6781BB80E09AEF01979F
:1001C000F1F782B3826082BB82B3816082BB0E94FE
:1001D000410080E09EE40197F1F70E944100C0E0F9
:1001E000D1E0CE010197F1F70E944100CE010197C5
:1001F000F1F782B38E7F82BB0E9441002197F1F715
:1002000088E20E94A00088E00E94A0000E94AA004C
:1002100086E00E94A000812F0E94A000DF91CF9174
:100220001F91089587B3887F87BB88B3876088BB99
:1002300084B3876084BB84B3806884BB089585B32E
:10024000806885BB089585B38F7785BB089595B386
:1002500021E030E002C0220F331F8A95E2F7292BFC
:1002600025BB089595B321E030E002C0220F331F73
:100270008A95E2F72095292325BB08950F931F93B4
:100280008B019C0180E090E001C00196AC01092E39
:10029000000C660B770B0417150726073707A8F71E
:1002A0001F910F9108950E9412018EE00E94D600C6
:1002B00086B3C6B3C270D0E006B3047010E080FB12
:1002C000EE24E0F8F12C80FD0FC0209769F00115B5
:1002D000110551F080E00E9427010E94AE0080E6E7
:1002E00090E00E94C7000BC080E00E94320160E1F4
:1002F0007BEE89E090E00E943E010E94AA00E1149A
:10030000F10479F4209769F40115110551F081E0A9
:100310000E9427010E94AE008CE690E00E94C70078
:100320000BC081E00E94320160E17BEE89E090E049
:100330000E943E010E94AA00EF2881F4CD2B71F4A7
:10034000012B61F482E00E9427010E941F010E949C
:10035000AE008BE790E00E94C700AACF82E00E9427
:1003600032010E94230160E17BEE89E090E00E946F
:0C0370003E010E94AA009CCFF894FFCF31
:10037C004C4556454C203A204C4F57004C45564561
:10038C004C203A204D454449554D004C4556454C62
:08039C00203A204849474800BF
:00000001FF
